:1000000086C0000095C0000093C0000091C00000B1
:100010008FC000008DC000008BC0000089C00000B0
:1000200087C0000085C0000083C0000081C00000C0
:100030007FC000007DC00000E1C5000079C0000065
:1000400077C0000075C0000073C0000071C00000E0
:100050006FC000006DC000006BC0000069C00000F0
:1000600067C0000065C0000063C0000061C0000000
:100070005FC000005DC000005BC0000059C0000010
:1000800057C0000055C0000053C000000800000029
:10009000BE922449123EABAAAA2ABECDCCCC4C3E7D
:1000A00000000080BEABAAAAAA3E00000000BF006C
:1000B0000000803F0000000000084178D3BB438768
:1000C000D1133D190E3CC3BD4282AD2B3E68EC827C
:1000D00076BED98FE1A93E4C80EFFFBE01C4FF7F01
:1000E0003F000000000007634236B79BD8A71A39CB
:1000F000685618AEBAAB558C1D3CB7CC5763BD6D76
:10010000EDFD753EF6177231BF000000803F1124EF
:100110001FBECFEFD0E1DEBFCDBF21E0A0E0B1E058
:1001200001C01D92A430B207E1F7BFD30C94C309FC
:1001300067CF88E18AB986E080939500109290009D
:1001400087E689B9089586B1806886B986B18760E7
:1001500086B9089597B1907F8770892B87B986B14A
:10016000806486B93699FECF84B195B10895CF9257
:10017000DF92EF92FF9220E030E044EB52E4E6D5CC
:1001800020E030E040E05FE379D520E030E040EA75
:1001900051E4DCD520E030E048EC52E471D720E0B7
:1001A00030E048EC52E4D2D56B017C0166B577B5FE
:1001B00080E090E064D6A701960162D72FD67BBD80
:1001C0006ABD8AB59BB5FF90EF90DF90CF90089500
:1001D00082E88FBD8BE18EBD87E893E197BD86BD38
:1001E00084E087BF089582B1886382B9EBE8F0E0CC
:1001F0008081896A8083EAE8F0E080818A60808378
:1002000008959927909387008093860077277093AD
:1002100085006093840055275093830040938200AB
:1002200008951816190644F040E050E060E070E0D0
:1002300080E090E0E6CF08956130710531F440E050
:1002400050E060E070E0DDCF08956230710539F470
:1002500040E050E0BC0180E090E0D3CF08956330EF
:10026000710531F4AC0160E070E080E090E0C9CF4E
:100270000895BC0180E090E002D620E030EC4FE72A
:1002800054E464D520E030E040EA50E4F9D69B0124
:10029000AC0160E078E987EB96E458D520E030EED9
:1002A00042E955E4EAD4A1D623E134E443E950E439
:1002B000E4D49B01AC0160E070E080E89FE3DDD412
:1002C0009B01AC0160E070E080E291E43CC70895DE
:1002D000BC0180E090E0D3D520E030EC4FE754E45F
:1002E00035D520E030E040EA50E4CAD69B01AC01AD
:1002F00060E070E080EA90E429D520E030EE42E949
:1003000055E4BED620E030EE42E955E4B6D420E014
:1003100030E04AE754E41AD573D62BEF33EA4FE8BE
:1003200059E3AED62FE03FEC4BE55BE3A7D49B014E
:10033000AC0160E070E080E89FE308D523E333E997
:1003400048E853E49AC4BC0180E090E098D520E0EE
:1003500030EC4FE754E4FAD420E030E040EA51E4D6
:100360008FC60895BC0180E090E089D520E030E0A0
:1003700040E85AE385D620E030E048EC52E480C6FD
:10038000089583B7886483BF83B7806283BF83B7D0
:10039000836083BF8AB383608ABB8BB381608BBB6E
:1003A0008BB38D7F8BBB089581BF089585B5856024
:1003B00085BD85B3806185BB85E38A95F1F785B3FB
:1003C0008F7E85BB839BFECF14BC8399FECF85B502
:1003D0008A7F85BD64B570E080E090E052D523E36C
:1003E00033E34BE652E4B2D420E030E048EC52E490
:1003F00047C6089581B3877F81BB08954F925F926E
:100400006F927F928F929F92AF92BF92CF92DF9224
:10041000EF92FF920F931F93CF93DF932B013C0139
:100420008A01C0E0D0E0C017D1070CF075C085B3D9
:10043000886085BBA301920160E070E08AE794E4E4
:1004400085D420E030E040E05FE31AD64B015C0148
:1004500020E030E04AE755E413D66B017C0120E050
:1004600030E040E85FE36ED48823FCF020E03FEF0B
:100470004FE757E4C701B601B4D5181694F420E04D
:1004800030E040E251E4C501B401FAD5CCD46115A5
:10049000710581F080E991E00197F1F761507109F0
:1004A000F6CFC701B601BFD402C061E070E0CB0156
:1004B0000197F1F785B3877F85BB20E030E040E806
:1004C0005FE3C701B6013ED48823FCF020E03FEF94
:1004D0004FE757E4C701B60184D5181694F420E01D
:1004E00030E040E251E4C501B401CAD59CD46115A5
:1004F000710581F080E991E00197F1F76150710990
:10050000F6CFC701B6018FD402C061E070E0CB0125
:100510000197F1F7219687CFDF91CF911F910F912E
:10052000FF90EF90DF90CF90BF90AF909F908F9013
:100530007F906F905F904F90089585B3877F85BBC4
:10054000089520E030E02A30310574F4F901EE0F0F
:10055000FF1FEE0FFF1FE80FF91F1082118212829A
:1005600013822F5F3F4FEFCFFC0111A610A612A6FA
:1005700013A614A615A608958F929F92AF92BF92CC
:10058000EF92FF920F931F93CF93DF93EC014A01F9
:100590005B0108A519A57801EE0CFF1CEE0CFF1CF1
:1005A000E80EF91EF70120813181428153816AA54D
:1005B0007BA58CA59DA561D36AA77BA78CA79DA7CA
:1005C000F70180829182A282B382A501940156D361
:1005D0006AA77BA78CA79DA70F5F1F4F19A708A726
:1005E0000A30110510F019A618A620E030E040E20C
:1005F00051E4ACD3DF91CF911F910F91FF90EF9019
:10060000BF90AF909F908F900895FC01108211824F
:10061000128213820895CF92DF92EF92FF92CF93CE
:10062000DF93EC01CB01BA012DEC3CEC4CE45EE332
:1006300027D56B017C01688179818A819B812DECB2
:100640003CEC4CE45FE31CD59B01AC01C701B60157
:1006500015D3688379838A839B83DF91CF91FF9041
:10066000EF90DF90CF90089520E030E02A30310500
:10067000D4F4F901EE0FFF1FEE0FFF1FE80FF91F73
:100680001082118212821382F9013A96EE0FFF1F37
:10069000EE0FFF1FE80FF91F1082118212821382E2
:1006A0002F5F3F4FE3CFFC01E05BFF4F11821082D1
:1006B00008958F929F92AF92BF92CF92DF92EF9266
:1006C000FF920F931F93CF93DF937C01FC01E05BBC
:1006D000FF4FC080D180F6013A96EE0FFF1FEE0F5C
:1006E000FF1FE80FF91F40835183628373838601E4
:1006F000C0E0D0E0812C912C5401CA30D1054CF5DA
:10070000FE01EE0FFF1FEE0FFF1FEE0DFF1D6081BC
:10071000718182819381F8013A96EE0FFF1FEE0FEF
:10072000FF1FEE0DFF1D2081318142815381A8D42E
:100730009B01AC01C501B401A1D24B015C010115C3
:10074000110519F00150110902C009E010E02196CD
:10075000D4CF8FEFC81AD80AF701E05BFF4FD182E0
:10076000C0828AE0C816D10410F011821082C5013F
:10077000B401DF91CF911F910F91FF90EF90DF9027
:10078000CF90BF90AF909F908F9008950F931F933D
:10079000FC01408351836283738304831583268322
:1007A000378310861186128613861F910F91089544
:1007B0004F925F926F927F928F929F92AF92BF9271
:1007C000CF92DF92EF92FF92CF93DF9300D000D0D1
:1007D00000D0CDB7DEB79E838D8349835A836B8368
:1007E0007C83FC01408051806280738064817581CC
:1007F000868197812DEC3CEC4CEC5DE33FD26B01A4
:100800007C0120E030E040E85FE338D29B01AC019E
:10081000C701B6019BD24B015C01ED81FE8160876F
:10082000718782879387A301920169817A818B8185
:100830009C8123D29B01AC01C501B40121D49B0151
:10084000AC01C301B2011AD22B013C01ED81FE8142
:100850006083718382839383A501940160E070E0DB
:1008600080E89FE30AD29B01AC01C701B60108D41E
:10087000ED81FE816483758386839783C301B20112
:1008800026960FB6F894DEBF0FBECDBFDF91CF9195
:10089000FF90EF90DF90CF90BF90AF909F908F90A0
:1008A0007F906F905F904F900895CF93DF93CDB777
:1008B000DEB7C25DD1090FB6F894DEBF0FBECDBF63
:1008C00038DC41DC90DC84DC5CDD94DD87B3806364
:1008D00087BB88E184BB10926100CE01019631DEB6
:1008E000CE018F962EDE00E010E020E83FE340E0EE
:1008F00050E0BA01CE01835A9F4F48DFCE0187599D
:100900009F4FB2DECE0185549F4F7FDECE018154D2
:100910009F4F7BDE8DEC9CECACECBDE3AD968CAFD9
:100920009DAFAEAFBFAFAD97E1968CAF9DAFAEAF11
:10093000BFAFE197E5968CAF9DAFAEAFBFAFE59788
:10094000E9968CAF9DAFAEAFBFAFE997ED968CAF98
:100950009DAFAEAFBFAFED97C358DF4F888399838C
:10096000AA83BB83CD57D040CF57DF4F888399836D
:10097000AA83BB83C158D040CB57DF4F888399836C
:10098000AA83BB83C558D040C757DF4F888399835C
:10099000AA83BB83C958D040C357DF4F888399834C
:1009A000AA83BB83CD58D040789480E090E0D2DB1E
:1009B000BC0180E090E063D2C553DF4F6883798348
:1009C0008A839B83CB5CD04081E090E0C3DB51DC29
:1009D0002B013C0183E090E0BDDB7ADCC953DF4FA3
:1009E000688379838A839B83C75CD04086E090E0EC
:1009F000B1DBB8DC4B015C0187E090E0ABDBA3DC52
:100A0000CD53DF4F688379838A839B83C35CD04057
:100A1000CDDC6B017C01B301A201CE010196ACDDFE
:100A2000C153DF4F688379838A839B83CF5CD04037
:100A3000B501A401CE018F969FDD4B015C01B7018A
:100A4000A601CE01835A9F4FB3DECD53DF4F4881BD
:100A500059816A817B81C35CD040CE0185549F4F10
:100A6000DADD60930001709301018093020190939D
:100A70000301C553DF4F488159816A817B81CB5C7B
:100A8000D040CE0187599F4F14DECD53DF4F68838E
:100A900079838A839B83C35CD040C953DF4F4881ED
:100AA00059816A817B81C75CD040CE0181549F4FC0
:100AB000B2DD2B013C0120E030E040EA51E4C70107
:100AC000B60140D18823DCF420E030E040E251E47C
:100AD000C153DF4F688179818A819B81CF5CD0408F
:100AE000CFD29B01AC0160E070E08FE793E4C5D00A
:100AF00095D1DC01CB0161E070E093DB3EC020E0EA
:100B000030E040E252E4C701B6011CD18823DCF496
:100B100020E030E040E251E4C153DF4F6881798149
:100B20008A819B81CF5CD040ABD29B01AC0160E05D
:100B300070E08FE793E4A1D071D1DC01CB0163E0D9
:100B400070E06FDB1AC020E030E040E251E4C153B6
:100B5000DF4F688179818A819B81CF5CD04090D2C0
:100B60009B01AC0160E070E08FE793E486D056D142
:100B7000DC01CB0162E070E054DB20E030E04CEDC2
:100B800051E4C301B2012DD218168CF420E030E0FC
:100B900040E85EE3CD53DF4F688179818A819B8194
:100BA000C35CD0406DD23FD1CB01FEDB03C080E0FF
:100BB00090E0FADB20E030E040EA51E4C501B40106
:100BC00010D218167CF4C501B40128D16B017C0148
:100BD00020E030E040E251E4C501B40151D2A60169
:100BE0000DDC01C0AADC88E893E1009709F4DDCEB2
:100BF000E0E9F1E03197F1F70197F7CF1F920F92FB
:100C00000FB60F9211240BB60F922F933F934F9371
:100C10005F936F937F938F939F93AF93BF93EF9364
:100C2000FF93609100017091010180910201909108
:100C3000030120E030E040E251E4D3D1181634F44F
:100C400060E070E084EB92E492DA04C060E070E06F
:100C5000CB018DDAFF91EF91BF91AF919F918F9171
:100C60007F916F915F914F913F912F910F900BBEAC
:100C70000F900FBE0F901F9018955058BB27AA27B2
:100C80000ED075C166D130F06BD120F031F49F3FAA
:100C900011F41EF45BC10EF4E095E7FB51C1E92F9E
:100CA00077D180F3BA17620773078407950718F0A6
:100CB00071F49EF58FC10EF4E0950B2EBA2FA02D86
:100CC0000B01B90190010C01CA01A0011124FF27F9
:100CD000591B99F0593F50F4503E68F11A16F040F4
:100CE000A22F232F342F4427585FF3CF46953795F3
:100CF0002795A795F0405395C9F77EF41F16BA0BB8
:100D0000620B730B840BBAF09150A1F0FF0FBB1F65
:100D1000661F771F881FC2F70EC0BA0F621F731FAE
:100D2000841F48F4879577956795B795F7959E3F0B
:100D300008F0B3CF9395880F08F09927EE0F979599
:100D400087950895D9D008F481E008950CD00FC19B
:100D500007D140F0FED030F021F45F3F19F0F0C031
:100D6000511139C1F3C014D198F39923C9F3552314
:100D7000B1F3951B550BBB27AA276217730784078E
:100D800038F09F5F5F4F220F331F441FAA1FA9F344
:100D900033D00E2E3AF0E0E830D091505040E69536
:100DA000001CCAF729D0FE2F27D0660F771F881F97
:100DB000BB1F261737074807AB07B0E809F0BB0B86
:100DC000802DBF01FF2793585F4F2AF09E3F5105AA
:100DD00068F0B6C000C15F3FECF3983EDCF3869547
:100DE00077956795B795F7959F5FC9F7880F911D20
:100DF0009695879597F90895E1E0660F771F881F0C
:100E0000BB1F621773078407BA0720F0621B730BBE
:100E1000840BBA0BEE1F88F7E095089504D0689410
:100E2000B111D9C00895BCD088F09F5790F0B92F68
:100E30009927B751A0F0D1F0660F771F881F991F2F
:100E40001AF0BA95C9F712C0B13081F0C3D0B1E041
:100E50000895C0C0672F782F8827B85F39F0B93F51
:100E6000CCF3869577956795B395D9F73EF4909531
:100E70008095709561957F4F8F4F9F4F0895E894AF
:100E800009C097FB3EF490958095709561957F4FD2
:100E90008F4F9F4F9923A9F0F92F96E9BB27939580
:100EA000F695879577956795B795F111F8CFFAF490
:100EB000BB0F11F460FF1BC06F5F7F4F8F4F9F4FC1
:100EC00016C0882311F096E911C0772321F09EE81F
:100ED000872F762F05C0662371F096E8862F70E085
:100EE00060E02AF09A95660F771F881FDAF7880F5F
:100EF0009695879597F90895990F0008550FAA0BB5
:100F0000E0E8FEEF16161706E807F907C0F012161C
:100F10001306E407F50798F0621B730B840B950B1F
:100F200039F40A2661F0232B242B252B21F4089574
:100F30000A2609F4A140A6958FEF811D811D089511
:100F400097F99F6780E870E060E008959FEF80EC7C
:100F5000089500240A94161617061806090608951F
:100F600000240A9412161306140605060895092E85
:100F70000394000C11F4882352F0BB0F40F4BF2BF4
:100F800011F460FF04C06F5F7F4F8F4F9F4F089534
:100F900057FD9058440F551F59F05F3F71F047952A
:100FA000880F97FB991F61F09F3F79F0879508950F
:100FB000121613061406551FF2CF4695F1DF08C02E
:100FC000161617061806991FF1CF8695710561054B
:100FD00008940895E894BB2766277727CB0197F9F3
:100FE00008958ADF08F48FEF08950AD029ED3BE5D4
:100FF0004EED5EE345C00EF023C1A8CF6894A0CFAC
:10100000CFDFC8F39923D1F3C6F3DF93CF931F93B8
:101010000F93FF92C92FDD2788232AF02197660FAF
:10102000771F881FDAF720E030E040E85FEB9FE3AE
:10103000883920F0803E30F021968F771FDEECE873
:10104000F0E003C01BDEE9EBF0E008D18B01BE014C
:10105000EC01FB2E6F5771097595771F880B990B63
:1010600010DF28E132E741E35FE316D0AF2D9801AE
:10107000AE01FF900F911F91CF91DF9110DE77CFDE
:101080000BD075CF66DF28F06BDF18F0952309F0E1
:1010900057CF5CCF11249FCF7BDFA0F3959FD1F377
:1010A000950F50E0551F629FF001729FBB27F00D16
:1010B000B11D639FAA27F00DB11DAA1F649F66276B
:1010C000B00DA11D661F829F2227B00DA11D621FBA
:1010D000739FB00DA11D621F839FA00D611D221F74
:1010E000749F3327A00D611D231F849F600D211D58
:1010F000822F762F6A2F11249F5750408AF0E1F0FB
:1011000088234AF0EE0FFF1FBB1F661F771F881F43
:1011100091505040A9F79E3F510570F011CF5BCF21
:101120005F3FECF3983EDCF3869577956795B7952E
:10113000F795E7959F5FC1F7FE2B880F911D969558
:10114000879597F90895FA01EE0FFF1F3096210554
:10115000310599F16115710561F48038BFE39B0792
:1011600049F168949038810561F08038BFEF9B07A2
:1011700041F0992342F5FF3FE1053105210511F1C9
:10118000E8940894E795D901AA2329F4AB2FBE2F40
:10119000F85FD0F310C0FF5F70F4A695E0F7F73961
:1011A00050F019F0FF3A38F49F779F930CD00F90CE
:1011B00007FC905808953EF0C9CE60E070E080E8EA
:1011C0009FE308954FE79F775F934F933F932F934C
:1011D00017DF2F913F914F915F9152DF05C019F4B6
:1011E0000EF0AECEF7CEB2CEDBDEC8F39638C0F747
:1011F00007F80F92E8942BE33AEA48EB5FE74EDFFB
:101200000F920F920F924DB75EB70F9289D0E6EE14
:10121000F0E024D04F915F91EF91FF91E595EE1FA3
:10122000FF1F49F0FE57E0684427EE0F441FFA9570
:10123000E1F74195550B40D00F9007FE34C008955B
:101240009F3F31F0915020F4879577956795B7953A
:10125000880F911D9695879597F90895DF93CF9301
:101260001F930F93FF92EF92DF927B018C016894A2
:1012700005C0DA2EEF0110DFFE01E894A59125915B
:10128000359145915591AEF3EF0109DDFE019701CE
:10129000A801DA9479F7DF90EF90FF900F911F91FA
:1012A000CF91DF9108959B01AC0160E070E080E890
:1012B0009FE34CCD45CEC4CF73DEE8F39923D9F339
:1012C000940F511DBBF39150504094F059F0882376
:1012D00032F0660F771F881F91505040C1F79E3F34
:1012E000510544F7880F911D9695879597F90895B4
:1012F0005F3FACF0983E9CF0BB278695779567954D
:10130000B79508F4B1609395C1F7BB0F58F711F486
:1013100060FFE8CF6F5F7F4F8F4F9F4FE3CF5BCE74
:10132000FA01DC01AA0FBB1F9B01AC01BF5728F4D7
:1013300022273327442750781FC0B75188F4AB2F9A
:101340000024469537952795011CA395D2F30020DC
:1013500069F0220F331F441FB395DAF30DD08DCC03
:1013600061307105A0E88A07B94630F49B01AC01F1
:101370006627772788279078309621F0208331835D
:0A138000428353830895F894FFCFD1
:00000001FF
